:020000040800F2
:100000004007002055020008A5230008052200082B
:10001000A123000831070008E926000800000000BD
:10002000000000000000000000000000D1240008D3
:100030003507000800000000A9230008D5240008A7
:100040006F0200086F0200086F0200086F020008CC
:100050006F020008AD2300086F0200086F0200085D
:100060006F0200086F0200086F0200086F020008AC
:100070006F0200086F0200086F0200086F0200089C
:100080006F0200086F0200086F0200086F0200088C
:100090006F0200086F0200086F0200086F0200087C
:1000A0006F020008992500086F0200086F0200081F
:1000B0006F0200086F0200086F0200086F0200085C
:1000C0006F0200086F0200086F0200086F0200084C
:1000D0006F0200086F0200086F0200086F0200083C
:1000E0006F0200086F0200086F0200086F0200082C
:1000F0006F0200086F0200086F0200086F0200081C
:100100006F0200086F0200086F0200086F0200080B
:100110006F0200086F0200086F0200086F020008FB
:100120006F0200086F0200086F0200086F020008EB
:100130006F0200086F0200086F0200086F020008DB
:100140006F0200086F0200086F0200086F020008CB
:100150006F0200086F0200086F0200086F020008BB
:100160006F0200086F0200086F0200086F020008AB
:100170006F0200086F0200086F0200080000000014
:100180006F0200086F02000800F002F800F052F859
:1001900014A696E8000CB244B344DA4501D100F04D
:1001A00049F8BAE80F000FA696E83000A5EB040561
:1001B00004EB0607AAEB0704A7F101074FEA1515A0
:1001C0004FEA3414A4F10104AC4201D300F032F838
:1001D00013F0010F18BFFB1A43F0010300F001F800
:1001E000DBE71847C82A0000E82A0000103A24BFBD
:1001F00078C878C1FAD8520724BF30C830C144BF8C
:1002000004680C6070470000704700000023002461
:1002100000250026103A28BF78C1FBD8520728BF16
:1002200030C148BF0B6070471FB502F0ADFC1FBD69
:1002300010B510BD00F0E4F81146FFF7F5FF02F02D
:1002400055FA00F002F903B4FFF7F2FF03BC00F027
:1002500005F900000948804709480047FEE7FEE726
:10026000FEE7FEE7FEE7FEE7FEE7FEE7FEE7FEE766
:1002700004480549054A064B7047000085250008DB
:1002800089010008400100204007002040030020B1
:100290004003002053EA020C00F069802DE9F04B86
:1002A0004FF00006002B1FBFB3FA83F503FA05F4E5
:1002B00024FA05F65E4012BF1643B2FA82F502FA3E
:1002C00005F4C5F120051EBF22FA05FC44EA0C0422
:1002D000203556EA044C4FEA144418BF641C4FF012
:1002E00000084FF00009904271EB030C39D300294C
:1002F00019BFB1FA81F701FA07F6B0FA80F700FAF0
:1003000007F6C7F120071EBF20FA07FC46EA0C06D5
:100310002037B6FBF4FCA7EB0507103F07F01F0BD7
:10032000CBF120062CFA06F60CFA0BFB44BFB346C1
:100330000026202FA4BF5E464FF0000B5BEA060CA0
:1003400008BF4FF0010B19EB0B0948EB0608ABFB9C
:10035000027C06FB02CC0BFB03CCC01B71EB0C0137
:10036000C1E70B46024641464846BDE8F08B13B54F
:10037000084318BF4FF0FF300146AFF30080BDE8DF
:100380001C4070474FF0000200B513469446964655
:10039000203922BFA0E80C50A0E80C50B1F1200198
:1003A000BFF4F7AF090728BFA0E80C5048BF0CC046
:1003B0005DF804EB890028BF40F8042B08BF7047A4
:1003C00048BF20F8022B11F0804F18BF00F8012B16
:1003D000704770477047704710B500F009F8006823
:1003E00010BD10B5044600F003F8046010BD000015
:1003F000004870471000002000487047100000209F
:100400007546FFF7F9FFAE4605006946534620F0F2
:100410000700854618B020B5FFF72AFFBDE8204049
:100420004FF000064FF000074FF000084FF0000BB0
:10043000AC46ACE8C009ACE8C009ACE8C009ACE81F
:10044000C00921F007018D46704710B50446AFF38F
:1004500000802046BDE81040FFF7F5BE0149182096
:10046000ABBEFEE726000200704700000020C4F289
:1004700002001021012200F0BFBB00000020C4F2E6
:1004800002001021002200F0B7BB000070B582B05E
:100490000024C4F2020420461021002200F0ACFB2C
:1004A000B62040F28C058DF803007E20C2F20005D4
:1004B0008DF802000DF10201284601224FF47A73F3
:1004C00001F0D8F8284600F023FF0328FAD040F2C4
:1004D0008C05C2F200050DF10301284601224FF4FC
:1004E0007A7301F0C7F800BF284600F011FF032817
:1004F000FAD0012000F094FA20461021012200F0E9
:100500007BFB04F5806528460121002200F074FB86
:10051000B62040F28C068DF805001420C2F20006C9
:100520008DF8040001A9304601224FF47A7301F0DE
:10053000A1F800BF304600F0EBFE0328FAD040F2ED
:100540008C06C2F200060DF10501304601224FF47F
:100550007A7301F08FF800BF304600F0D9FE03280F
:10056000FAD01E2000F05CFA28460121012200F09A
:1005700043FB20461021002200F03EFB012000F04A
:100580004FFA042040F28C058DF807007D20C2F25E
:1005900000058DF806000DF10601284601224FF4F2
:1005A0007A7301F067F800BF284600F0B1FE032817
:1005B000FAD040F28C05C2F200050DF10701284681
:1005C00001224FF47A7301F055F800BF284600F07D
:1005D0009FFE0328FAD0012000F022FA20461021C5
:1005E000012200F009FB02B070BD0000F0B581B03F
:1005F0000024C4F2020415460E4607462046102188
:10060000002200F0F9FA47F0800040F28C07C2F2B5
:1006100000078DF803000DF10301384601224FF465
:100620007A7301F027F800BF384600F071FE032806
:10063000FAD040F28C07C2F20007384631462A460B
:100640004FF47A7300F016FF384600F061FE04287C
:10065000FAD020461021012200F0CEFA01B0F0BD00
:10066000F0B581B040F20044C4F2020415460E46D3
:10067000074620460121002200F0BEFA47F0800024
:1006800040F28C07C2F200078DF803000DF1030160
:10069000384601224FF47A7300F0ECFF384600F040
:1006A00037FE0328FAD040F28C07C2F20007384622
:1006B00031462A464FF47A7300F0DCFE384600F0EB
:1006C00027FE0428FAD020460121012200F094FAE6
:1006D00001B0F0BD10B582B040F28C0400F07F0094
:1006E000C2F200048DF807108DF806000DF1060126
:1006F000204601224FF47A7300F0BCFF204600F040
:1007000007FE0328FAD040F28C04C2F200040DF177
:100710000701204601224FF47A7300F0ABFF00BFBF
:10072000204600F0F5FD0328FAD002B010BD00000D
:10073000FEE700007047000072B600BFFEE7000051
:100740002DE9F04F81B02DED028B84B00026C4F26C
:100750000206CDE901230C46054630461021002251
:1007600000F04AFA40F28C079220C2F200078DF89E
:100770000F000DF10F01384601224FF47A7300F09B
:1007800079FF00BF384600F0C3FD0328FAD040F2DD
:100790008C07C2F200073846294607224FF47A73C5
:1007A00000F068FE384600F0B3FD0428FAD0304669
:1007B0001021012200F020FAB5F90100B5F805106A
:1007C00000EB8000B5F903704000A1F5A85902F0D4
:1007D000C5F89FED378B04F1010AB0EE480A0546D3
:1007E000F0EE680A50460E4601F0AEFF51EC100BD9
:1007F0002A46334602F0CAF89FED2F0B5BEC108BB4
:1008000042465B4602F0C2F89FED2D0B55EC106B93
:1008100032462B4602F0BAF802F01EF80199086041
:1008200007EB8700400002F099F8B0EE480A07464F
:10083000F0EE680A50460C4601F086FF51EC100BB2
:100840003A46234602F0A2F842465B4602F09EF882
:1008500032462B4602F09AF801F0FEFF029908603A
:100860000FFA89F000EB8000400002F077F8B0EE5C
:10087000480A0446F0EE680A50460F4601F064FF4D
:1008800051EC100B22463B4602F080F842465B4694
:1008900002F07CF832462B4602F078F801F0DCFFDB
:1008A0001099086004B0BDEC028B01B0BDE8F08F78
:1008B000000000000000F03F000000000000F83FD2
:1008C000000000000000003F2DE9F04F81B02DED49
:1008D000028B84B040F20047C4F20207CDE9012345
:1008E0000C46064638460121002200F085F940F208
:1008F0008C058220C2F200058DF80F000DF10F016A
:10090000284601224FF47A7300F0B4FE284600F026
:10091000FFFC0328FAD040F28C05C2F200052846FD
:10092000314606224FF47A7300F0A4FD284600F009
:10093000EFFC0428FAD038460121012200F05CF9CE
:10094000B6F900004FF47A78B6F90290B6F904B01F
:1009500000FB08F002F002F89FED2D8BC4F1010AB4
:10096000B0EE480A0546F0EE680A50460F4601F020
:10097000EBFE51EC100B2A463B4602F007F89FEDC8
:10098000260B57EC104B22463B4601F0FFFF01F0CF
:1009900063FF0199086009FB08F001F0DFFFB0EE8A
:1009A000480A0546F0EE680A50460E4601F0CCFEB5
:1009B00051EC100B2A46334601F0E8FF22463B4635
:1009C00001F0E4FF01F048FF029908600BFB08F01A
:1009D00001F0C4FFB0EE480A0546F0EE680A504642
:1009E0000E4601F0B1FE51EC100B2A46334601F0E1
:1009F000CDFF22463B4601F0C9FF01F02DFF1099C3
:100A0000086004B0BDEC028B01B0BDE8F08F00BF00
:100A1000000000000000F03F000000000000003F68
:100A2000B0B5044600F0EEF8054640F20000C2F210
:100A300000000078611C18BF044400BF00F0E2F819
:100A4000401BA042FAD3B0BD2DE9F04F83B000F1B6
:100A5000200200F13E4741F60045009207F1FF7782
:100A6000C4F2020508224FEAB726A84208BF0722AF
:100A700000254FF000084FF00009072E38BF4FEA5D
:100A8000B72201920AE000BF09F1010908F102084A
:100A9000B9F1100F05F1040500F0A2800F680122E2
:100AA00002FA09FE17EA0E0AEED0D1F804C00322BA
:100AB0000CF003077E1E02FA08F4012E6FEA040B05
:100AC00012D88468CE6804EA0B0406FA08F63443A8
:100AD0008460446824EA0E06CCF3001404FA09F496
:100AE0002643466004E000BF032F01D103271EE028
:100AF000C6688C6806EA0B0604FA08F42643022F3F
:100B0000C66014D16FF00302009E02EA590756F83E
:100B100007C005F01C040F220B69A2402CEA020258
:100B2000A3401A43F251D1F804C00CF00307026845
:100B300007FA08F302EA0B021A431CF4403F026072
:100B4000A2D0002243F644030292C4F202031A68C0
:100B500043F6004442F480421A601A68C4F2010469
:100B600002F480420292029A29F003024FF6084CE6
:100B70002244CFF6FF7C52F80C3005F00C070F260C
:100B8000BE40B343019E06FA07F73B4342F80C30E0
:100B9000A2684B6842EA0A0743F60C4CDE0258BFD3
:100BA00022EA0A07A760C4F2010CDCF800209E02CA
:100BB00042EA0A0758BF22EA0A07CCF800706268C6
:100BC0009E0342EA0A0758BF22EA0A0767602268C2
:100BD000DB0342EA0A0758BF22EA0A07276053E705
:100BE00003B0BDE8F08F0000426902EA01039143BF
:100BF00041EA034181617047002A08BF090481610D
:100C00007047000040F23C10C2F2000000687047DC
:100C100040F2000040F23C11C2F20000C2F20001BA
:100C200000780A68104408607047000080B543F6F9
:100C30000040C4F20200016841F4007101600168E3
:100C400041F480610160016841F48071016003201A
:100C500000F090F80F2000F005F800F027F80020D1
:100C600080BD000070B540F20006C2F2000640F2FE
:100C700008013278C2F200014FF47A730968B3FBBD
:100C8000F2F20446B1FBF2F1084600F0D5FF0F2C5A
:100C90004FF0010508D838B94FF0FF302146002247
:100CA000002500F03BF87460284670BD80B582B026
:100CB000002043F640010190C4F202014A6842F468
:100CC00080424A604A6802F480420192019A009090
:100CD0000868002240F0805008600868002100F099
:100CE000805000900098052000F018F8052002B010
:100CF000BDE88040AFF30080002848BF704700F097
:100D00001F01012202FA01F11C2202EAD0004EF278
:100D10000012CEF2000281507047000010B54EF66E
:100D20000C5CCEF2000CDCF80030C3F3022E8EF027
:100D30000704042C28BF0424BEF103034FF0FF3E38
:100D40000EFA04F438BF0023A14399400EFA03F3CE
:100D50009A43114300F00F0200F160430901043A85
:100D600003F564436244002848BF02F10C03197084
:100D700010BD00004EF60C51CEF200010A684FF68D
:100D8000FF031A4060F30A2242F0806040F0FD70D9
:100D900008607047002804BF012070472DE9F0412A
:100DA00043F60808C4F202080446D8F8F8030D46D2
:100DB00000F00700884207D288F8F853D8F8F80303
:100DC00000F00700A84277D12068810717D54107B6
:100DD00005D5D8F8001041F4E051C8F8001001071B
:100DE00005D5D8F8001041F46041C8F80010D8F8D3
:100DF0000010A26821F0F0011143C8F80010C007EC
:100E000040D1D8F8F80300F00700A84207D988F8C5
:100E1000F853D8F8F80300F00700A8424CD1206836
:100E2000410707D5D8F80010E26821F4E0511143DA
:100E3000C8F80010000708D5D8F80000216920F490
:100E4000604040EAC100C8F8000000F055F8D8F84A
:100E5000001042F69C42C1F30311C0F60002515C3F
:100E600040F2080220FA01F140F20400C2F2000050
:100E70000068C2F200021160FFF7F4FE0020BDE836
:100E8000F08100BF6068811E022907D258F8081C53
:100E900089015CBF0120BDE8F08111E0012807D184
:100EA00058F8081C89035CBF0120BDE8F08107E009
:100EB00058F8081C890703D40120BDE8F08100BF61
:100EC000D8F8001021F003010843C8F80000FFF72C
:100ED00099FE064641F28837D8F80000616800F0B4
:100EE0000C00B0EB810F8CD0FFF78CFE801BB8425A
:100EF000F2D90320BDE8F08110B543F60404C4F232
:100F00000204606800F00C0008280BD0042819BF08
:100F100042F20040C0F2F40041F60030C0F2B700E7
:100F200010BD00BF206821682368490241F60031E6
:100F3000C0F2B70100F03F02C3F388105CBF42F279
:100F40000041C0F2F401A1FB00010023FFF7A2F968
:100F500021680222C1F3014102EB4101B0FBF1F033
:100F600010BD0000002804BF012070472DE9F041AA
:100F700082B00446007843F60006C007C4F20206B9
:100F80000CD0B06800F00C00042840F0818030687C
:100F9000800303D56068002800F06881207880070E
:100FA0001BD5B06810F00C0F09D0B06800F00C0031
:100FB000082840F087807068400200F18380306824
:100FC000800703D5E068012840F05081306821692E
:100FD00020F0F80040EAC10030602078000713D408
:100FE000207840072AD4A569002D00F03A81B06826
:100FF00000F00C00082840F0A580012D40F00E8183
:10100000012002B0BDE8F0816069002800F0828014
:101010000020C4F247200121C0F8801EFFF7F2FD36
:10102000054600BF706F8007DAD4FFF7EBFD401B69
:101030000228F7D9032002B0BDE8F081306C5FEAE6
:10104000C0080AD400200190306C40F08050306419
:10105000306C00F080500190019847F20007C4F214
:1010600000073868C00547D4386840F4807038609D
:10107000FFF7C8FD054600BF3868C0053CD4FFF740
:10108000C1FD401B0228F7D9032002B0BDE8F08162
:10109000B06800F00C00082803D1706840023FF5EA
:1010A00076AF61683068B1F5803F07D0B1F5A02F09
:1010B00040F09A8040F480203060306840F4803006
:1010C00030609AE0E068002840F20000C4F2472057
:1010D0005CD001210160FFF795FD0546306880076F
:1010E0003FF574AFFFF78EFD401B0228F6D90320B1
:1010F00002B0BDE8F08100BFA168306F012905D0C2
:10110000052955D140F004003067306F40F00100F0
:10111000306756E00020C4F247200021C0F8801E4E
:10112000FFF770FD054600BF706F80077FF558AF71
:10113000FFF768FD401B0228F6D9032002B0BDE886
:10114000F08100BF0027C4F2472700203866FFF770
:1011500059FD022D05460DD13068800140F18A808D
:10116000FFF750FD401B02284FF00300F4D902B0F6
:10117000BDE8F0813068800173D5FFF743FD401B67
:1011800002284FF00300F5D9F1E700BF002101600C
:10119000FFF738FD054600BF306880077FF51DAFBB
:1011A000FFF730FD401B02284FF00300F4D9DEE7C3
:1011B00020F001003067306F002920F00400306714
:1011C0007AD0FFF71FFD054641F28837306F800760
:1011D00000F18480FFF716FD401BB842F6D90320CA
:1011E00002B0BDE8F08100BF20F48030306030688C
:1011F000002920F4802030607AD0FFF703FD0546F7
:10120000306880033FF5CAAEFFF7FCFC401B642842
:10121000F6D9032002B0BDE8F08100BF7068E16933
:1012200000F480028A4221D1216A00F03F028A4202
:101230001CD147F6C071626A0140B1EB821F15D123
:10124000A16A4FF6FF73C903994300F44032A1F538
:1012500080318A420AD1E16A00F07060B0EB016F20
:1012600004D1002002B0BDE8F08100BF012002B02F
:10127000BDE8F08104F11C052FCD084340EA82103F
:10128000D9034FF6FF729143A1F5803140EA056022
:101290000843706001203866FFF7B4FC044600BFC5
:1012A00030688001DDD4FFF7ADFC001B02284FF051
:1012B0000300F5D95BE700BFFFF7A4FC054641F248
:1012C000883700BF306F800708D5FFF79BFC401BB5
:1012D000B8424FF00300F5D949E700BFB8F1000F5D
:1012E0003FF581AE306C20F0805030647BE600BF6B
:1012F000FFF788FC054600BF306880037FF54EAEDF
:10130000FFF780FC401B64284FF00300F4D92EE760
:1013100090F851007047000070B528B1416A29B1BA
:1013200000210161142106E0012070BD4168B1F582
:10133000827F02D01C21002242500026866290F853
:10134000511029B980F85060054600F03DF8284654
:10135000022180F8511090E82E0002F482720C688D
:1013600003F4044324F040040C601A4405F40063C1
:1013700005691A4405F0020345691A4405F00103A2
:101380008569C4691A4405F400731A4404F03803EB
:10139000046A1A4404F08003846A1A4304F4005374
:1013A0001A430A60436A042202EA154203F010035A
:1013B0001A444A60CA6922F40062CA610121466582
:1013C00080F85110304670BD2DE9F04387B043F2EC
:1013D00000050068C4F201050026A8420696CDE982
:1013E00004660396029603D007B0BDE8F08300BF01
:1013F00043F630000196C4F20200416902AC41F4A8
:101400008051416141694FF0020801F4805101911E
:101410000199019601684FF0030941F00201016052
:101420000168052701F00201019101990196016807
:1014300041F0010101600068214600F001000190C7
:1014400001981820029005F55440CDE90386CDF8A7
:1014500014900697FFF7F8FA8020CDE9020805F509
:1014600050402146CDE904690697FFF7EDFA07B031
:10147000BDE8F0832DE9F04182B0044690F85100B8
:10148000012819D160681D4617460E46B0F5827FC7
:1014900001D1A068A0B1FFF7B5FB8046002E4FF048
:1014A000010018BF002F03D102B0BDE8F08100BFDA
:1014B00094F85000012811D1022002B0BDE8F0815B
:1014C000042084F851002046314632463B460095C0
:1014D00000F00EFA02B0BDE8F08100BF012084F8F0
:1014E00050000420002184F851006165A663A7879D
:1014F000E7872163A186E186A2682068B2F5004FE4
:101500002164616438D00168490640D5E168E08F04
:10151000002944D000287BD0681C0CD11BE000BF00
:10152000C068A16B21F8020BA163E08F0138E0874E
:10153000E08F00286CD020688168C907F0D1FFF7E0
:1015400061FBA0EB0800A842F2D342E0FFF75AFB90
:10155000E08F00285CD020688168C907F6D0C06899
:10156000A16B21F8020BA163E08F0138E087E08FC7
:101570000028F0D14CE000BF016821F0400101607B
:10158000016821F48041016001684906BED4016808
:1015900041F040010160E168E08F0029BAD1B8B3A1
:1015A000681C0CD124E000BF007BA16B0870A06B0D
:1015B0000130A063E08F0138E087E08F40B32068FE
:1015C0008168C907F0D1FFF71DFBA0EB0800A84216
:1015D000F3D3012084F85100002084F85000032048
:1015E00002B0BDE8F08100BFFFF70CFBE08F78B1DF
:1015F00020688168C907F7D0007BA16B0870A06BD9
:101600000130A063E08F0138E087E08F0028EFD140
:101610006068B0F5827F0ED1A068B0F5004F02D0AF
:10162000B0F5806F0AD12168B0F5806F0A6822F0AA
:1016300040020A6002D12046012101E020468021BB
:1016400000222B46CDF8008000F0B2FE28B1606D7C
:1016500040F02000606520206065012084F8510082
:10166000002084F85000606D002818BF012002B0EF
:10167000BDE8F0812DE9F04184B01D4616460F46C5
:101680000446FFF7BFFA94F8511001290ED18046A5
:10169000002F4FF0010018BF002E03D104B0BDE8A9
:1016A000F08100BF94F85000012803D1022004B05B
:1016B000BDE8F081012084F850000320002184F867
:1016C000510061652763A686E686A163A187E1874D
:1016D000A0682164B0F5004F2068616407D10168FB
:1016E00021F040010160016841F48041016001681E
:1016F000490603D4016841F0400101606168731E2E
:10170000E268B1FA81F1B3FA83F349095B09B2F5F2
:10171000006F41EA030139D131B137F8021BC160D2
:101720002763E08E0138E086E08E002870D0681CC8
:101730000BD11AE0216B31F8022BC2602163E08EDD
:101740000138E086E08E002862D020688168890731
:10175000F0D4FFF757FAA0EB0800A842F2D338E024
:10176000FFF750FAE08E002852D020688168890780
:10177000F6D5216B31F8022BC2602163E08E01386F
:10178000E086E08E0028F0D142E000BF39B1397820
:101790000173206B01302063E08E0138E086E08E1B
:1017A000B0B3681C0BD123E0216B09780173206B67
:1017B00001302063E08E0138E086E08E40B320687F
:1017C00081688907F0D4FFF71DFAA0EB0800A84252
:1017D000F3D3012084F85100002084F85000032046
:1017E00004B0BDE8F08100BFFFF70CFAE08E78B1DD
:1017F000206881688907F7D5216B09780173206B10
:1018000001302063E08E0138E086E08E0028EFD1C1
:101810002046022101222B46CDF8008000F0C8FDB1
:10182000E0B1606D40F02000606520206065A06838
:1018300038B9002002902068C16802918068029047
:101840000298012084F85100002084F85000606D57
:10185000002818BF012004B0BDE8F08140F2080064
:10186000C2F20000006849F68171C1F25E61A0FB1E
:101870000101480D4FF47A71484303906068B0F558
:10188000827F0BD12046802100222B46CDF800809C
:1018900000F08EFD0028C4D1C9E700BF03980028DE
:1018A000C5D0039801380390206880680006BED533
:1018B00003980028BBD00398013803902068806803
:1018C0000006B4D503980028B1D0039801380390DE
:1018D000206880680006AAD503980028A7D003983E
:1018E00001380390206880680006D7D49FE7000085
:1018F0002DE9F04383B01E4615460F460446FFF718
:1019000081F994F851108146012909D1002F4FF037
:10191000010018BF002D0FD103B0BDE8F08300BF58
:101920006068B0F5827F0DD104294FF00200F3D139
:10193000A1680029EAD0EFE7002EEDD094F850001E
:10194000012803D1022003B0BDE8F083012084F810
:10195000500094F85100002104281CBF052084F891
:1019600051006165A563E687A6872763E686206840
:10197000A686216461640168490603D4016841F0C8
:10198000400101606168731EE268B1FA81F1B3FA47
:1019900083F3DDF8288049095B09B2F5006F41EA5D
:1019A000030165D131B137F8021BC1602763E08EB6
:1019B0000138E086012518F1010032D102E000BFB4
:1019C000FFF720F9E08E18B9E08F002800F0B8800A
:1019D0002068816889070CD5E18E51B1012D08D1AD
:1019E000216B002531F8022BC2602163E18E0139A1
:1019F000E1868168C907E3D0E18F0029E0D0C068A3
:101A0000A16B012521F8020BA163E08F0138E0876B
:101A1000D6E700BFFFF7F6F8A0EB0900404580F0DD
:101A2000A580E08E18B9E08F002800F0898020683A
:101A3000816889070CD5E18E51B1012D08D1216B48
:101A4000002531F8022BC2602163E18E0139E18665
:101A50008168C907DED0E18F0029DBD0C068A16BA7
:101A6000012521F8020BA163E08F0138E087D1E75F
:101A700039B139780173206B01302063E08E013871
:101A8000E086012518F1010032D101E0FFF7BAF834
:101A9000E08E10B9E08F002852D020688168890755
:101AA0000ED5E18E61B1012D0AD1216B0025097897
:101AB0000173216B206801312163E18E0139E186D8
:101AC0008168C907E2D0E18F0029DFD0C068A16B2F
:101AD00001250870A06B0130A063E08F0138E0871A
:101AE000D4E700BFFFF78EF8A0EB090040453DD2D8
:101AF000E08E08B9E08F18B32068816889070ED599
:101B0000E18E61B1012D0AD1216B002509780173A5
:101B1000216B206801312163E18E0139E186816802
:101B2000C907DFD0E18F0029DCD0C068A16B012597
:101B30000870A06B0130A063E08F0138E087D1E727
:101B40002046022101224346CDF8009000F030FCEF
:101B5000B0B1606D40F0200060652020606500201D
:101B600084F85000012003B0BDE8F083012084F820
:101B70005100002084F85000032003B0BDE8F0833A
:101B800040F20800C2F20000006849F68171C1F21B
:101B90005E61A0FB0101480D4FF47A714843029049
:101BA0006068B0F5827F0BD1204680210022434639
:101BB000CDF8009000F0FCFB0028CAD124E000BF63
:101BC000029808B3029801380290206880680006E5
:101BD0001AD50298C0B10298013802902068806836
:101BE000000611D5029878B1029801380290206859
:101BF0008068000608D5029830B10298013802903A
:101C0000206880680006DBD4A06838B90020019005
:101C10002068C1680191806801900198012084F8D2
:101C20005100002084F85000606D002818BF01208A
:101C300003B0BDE8F0830000411E0020B0EB116F3F
:101C40001CBF012070474EF21002CEF2000251601C
:101C50004EF62351CEF20001F0230B700721906065
:101C600011607047704700007047000090F83C20FA
:101C7000012A4FF0020254D010B580F83D200268CE
:101C8000D2F804E0D2F808C00C682EF070032343A9
:101C900041F2FF74C4F20004A24253600EDC40F231
:101CA000FF73C4F200039A4216DCB2F1804F2BD0CE
:101CB00040F20043C4F2000324E000BF40F2FF33CF
:101CC000C4F201039A4213DC41F60003C4F200039C
:101CD0009A4219D0002313E040F60003C4F2000337
:101CE0009A4211D040F60043C4F200030AE000BF5C
:101CF00044F20003C4F201039A4205D040F20043CB
:101D0000C4F201039A4204D149682CF080031943BC
:101D100091600121002280F83D1080F83C20BDE850
:101D20001040104670470000002804BF0120704793
:101D300010B5044690F83D0028B9002084F83C0016
:101D4000204600F01FF8022084F83D002068211D85
:101D500000F028FC012084F8460084F83E0084F856
:101D60003F0084F8400084F8410084F8420084F881
:101D7000430084F8440084F8450084F83D000020C6
:101D800010BD000000680021C4F20101884218BFA4
:101D9000704780B582B00020019043F64400C4F241
:101DA00002000168002241F0010101600068002189
:101DB00000F00100019001981920FEF7AFFF1920F3
:101DC00002B0BDE88040FEF797BF000090F83D10DC
:101DD00001291CBF01207047022180F83D100068D6
:101DE00041F2FF72C168C4F20002904241F0010169
:101DF000C1600DDC40F2FF71C4F20001884215DCC5
:101E0000B0F1804F2AD040F20041C4F2000123E03B
:101E100040F2FF31C4F20101884213DC41F60001B7
:101E2000C4F20001884219D0002113E040F60001FD
:101E3000C4F20001884211D040F60041C4F2000112
:101E40000AE000BF44F20001C4F20101884205D05B
:101E500040F20041C4F20101884206D1816801F0DC
:101E60000701062904BF00207047016841F0010105
:101E7000016000207047000090F83C20012A4FF0DC
:101E800002026CD080B580F83D20D0F800C04FF63B
:101E90007772DCF8083023EA0202CCF808200B68DD
:101EA0004F2B29DC1F2B45DD202B46D0302B44D077
:101EB000402B40F0AF80D1F804E0C968DCF8203056
:101EC000DCF8202022F00102CCF82020DCF81820D9
:101ED00022F0F00242EA011123F00A0242EA0E0265
:101EE000CCF81810CCF82020DCF8081041F047019D
:101EF00021F0300128E000BF6F2B33DDB3F5005F28
:101F000074D0B3F5805F21D0702B40F08380D1E98D
:101F100001E3C968DCF8082043EA0E0322F47F429B
:101F200043EA01211143CCF80810DCF8081041F015
:101F3000770109E00BB1102B6CD1DCF8081021F00F
:101F40007001194341F00701CCF80810002201216B
:101F500080F83D10002180F83C10BDE8804010461C
:101F6000704700BF502B21D0602B53D1D1F804E033
:101F7000C968DCF82030DCF8202022F01002CCF810
:101F80002020DCF8182022F4704242EA013123F0CC
:101F9000A00242EA0E12CCF81810CCF82020DCF88F
:101FA000081041F0670121F01001CDE7D1F804E0FD
:101FB000C968DCF82030DCF8202022F00102CCF8DF
:101FC0002020DCF8182022F0F00242EA011123F070
:101FD0000A0242EA0E02CCF81810CCF82020DCF8F5
:101FE000081041F0570121F02001ADE7D1E901E3EC
:101FF000C968DCF8082043EA0E0322F47F4243EA72
:1020000001211143CCF80810DCF8081041F480419C
:102010009AE700BF01229AE77047000070B50446B6
:102020000068C5680669B10716D515F0020113D01E
:102030006FF002010161012121778069800703D0DF
:102040002046FFF7E9FF05E0204600F08FF8204624
:1020500000F08EF800202077700719D515F00400E5
:1020600016D020686FF00401016102212177806998
:1020700010F4407F04D02046FFF7CEFF06E000BFFB
:10208000204600F073F8204600F072F80020207718
:10209000300717D515F0080014D020686FF008013C
:1020A000016104212177C069800703D02046FFF732
:1020B000B3FF05E0204600F059F8204600F058F83C
:1020C00000202077F00619D515F0100016D02068F2
:1020D0006FF01001016108212177C06910F4407F81
:1020E00004D02046FFF798FF06E000BF204600F02E
:1020F0003DF8204600F03CF800202077F00718BF9C
:1021000015F0010002D1300609D412E020686FF00A
:1021100001010161204600F02DF8300609D515F0C7
:10212000800006D020686FF0800101612046FFF733
:1021300099FD700609D515F0400006D020686FF0B3
:1021400040010161204600F05BF8B00658BF70BD49
:1021500015F0200008D021686FF0200220460A61A7
:10216000BDE87040FFF780BD70BD00007047000003
:102170007047000010B582B000680024C4F201046A
:10218000A0421CBF02B010BD40F27100C2F20000BC
:10219000017840F27C0C40F22D1040F2740240F2C3
:1021A0007803C2F2000CC2F20000C2F20002C2F2D6
:1021B0000003CDF800C0FEF7C3FA40F22C10C2F2C3
:1021C0000000017840F2880C40F2341040F28002A6
:1021D00040F28403C2F2000CC2F20000C2F200021C
:1021E000C2F20003CDF800C0FEF76EFB04F58E309E
:1021F0004FF4006102B0BDE81040FEF7F5BC0000EE
:1022000070470000FEE700002DE9F04786B000248B
:1022100043F630000594CDE90344CDE90144009430
:10222000C4F20200016840F2000841F002010160BE
:102230000168C4F2020801F00201009100990094C3
:10224000016808F5E05541F00101016001680022D4
:1022500001F0010100910099009401684FF40069B8
:1022600041F08001016000684FF4006100F08000DF
:10227000009000982846FEF7BFFC4046102101223E
:102280004FF0100A0127FEF7B7FC08F580663046CC
:1022900001210122FEF7B0FCCDE901970DF10409FF
:1022A00028464946CDE90344FEF7CEFB4046494661
:1022B000CDE901A7CDE90344FEF7C6FB3046494608
:1022C000CDE90177CDE90344FEF7BEFB06B0BDE8DA
:1022D000F0870000B0B540F28C0043F20001C2F27A
:1022E0000000C4F201014FF48272002380E80E0066
:1022F00000F10C014FF0020C4FF0010E4FF400748E
:10230000382581E808500A21C0E90645C0E90833AC
:10231000C0E90A31FFF700F8002808BFB0BDBDE8EA
:10232000B040FEF709BA000080B586B040F2E40084
:1023300000220021C2F20000C4F2010240F28F63C9
:1023400042F20F7C0591CDE90311CDE90011C0E9FE
:102350000023C0E9021CC0E904118161FFF7E4FC1D
:10236000002818BFFEF7E8F94FF48050029040F2C1
:10237000E400C2F2000002A9FFF77EFD002818BFAA
:10238000FEF7DAF940F2E400C2F200006946FFF716
:102390006DFC002818BFFEF7CFF906B080BD000025
:1023A000FEE70000FEE700007047000070470000F5
:1023B0002DE9F04381B0089C984615460E468146AB
:1023C000FEF720FC201A00EB0804FEF71BFC40F28D
:1023D0000801C2F200010968C1F3CB3161430091E9
:1023E000D9F800108A683240921BB2FA82F2520980
:1023F000AA423DD0074618F1010031D0FEF702FC99
:10240000C01BA04238D2009800990028A1F1010118
:102410000091D9F80010896808BF044601EA060057
:10242000801BB0FA80F04009A842E7D120E000BF4D
:1024300088683040801BB0FA80F04009A84217D06D
:1024400088683040801BB0FA80F04009A8420FD065
:1024500088683040801BB0FA80F04009A84207D05D
:1024600088683040801BB0FA80F04009A842DFD174
:10247000002001B0BDE8F083D9E900014268B1F560
:10248000827F22F0E00242600BD1D9F80810B1F54A
:10249000004F02D0B1F5806F03D1016821F04001F7
:1024A0000160D9F82810B1F5005F07D1016821F467
:1024B00000510160016841F400510160012089F878
:1024C0005100002089F85000032001B0BDE8F083DE
:1024D00070470000FEF79CBB70B592B006AC20467A
:1024E0003021FDF74FFF002543F640000595CDE96B
:1024F0000355CDE901550095C4F20200016802269A
:1025000041F080510160006800F080500090009818
:1025100047F200000095C4F20000016841F48041D8
:102520000160006800F4804000900098012006904F
:102530004FF4803007904FF480000D9006200E90ED
:10254000A820CDE90F060420119020460C96FEF736
:1025500009FD18B172B600BFFEE700BF0F20CDE93C
:1025600001064FF4A05004904FF48050059001A84C
:1025700005210395FEF70EFC10B172B6FEE700BF11
:1025800012B070BD4EF68850CEF20000016841F4E2
:10259000700101607047000040F2E400C2F20000E8
:1025A000FFF73CBD10B540F6FF3E0368C4F2000ED5
:1025B00040F2004C7045C4F2010C25DCB0F1804FB4
:1025C0002FD040F20042C4F20002904229D040F6DF
:1025D0000002C4F20002904223D041F6FF72C4F21E
:1025E0000002904227DC70453ADCB0F1804F5BD0AE
:1025F00040F20042C4F20002904255D040F6000280
:10260000C4F200024EE000BF40F60042C4F20002F5
:10261000904206D0604504D00022C4F201029042EC
:10262000DBD14A6823F07003134341F6FF72C4F212
:1026300000029042D7DD43F6FF72C4F201029042DD
:1026400020DC42F20002C4F2000290422CD00022B0
:10265000C4F20102904227D0604525D028E000BF97
:1026600040F60042C4F2000290421DD041F6000242
:10267000C4F20002904217D041F60042C4F20002B8
:1026800010E000BF44F20002C4F2010290420BD0FD
:1026900044F60002C4F20102904205D044F2004226
:1026A000C4F20102904203D1CA6823F44073134379
:1026B00023F080024B69D1F800E08C681A43026075
:1026C000C46240F48062C0F828E0624504BF096932
:1026D0000163012141610169C90708BF10BD01699A
:1026E00021F00101016110BDFEE70000FEF79EFA36
:1026F000FFF7F2FEFFF788FDFFF7ECFDFFF714FE92
:10270000FDF7C4FE40F27004C2F20004002021462E
:102710000122FDF7A5FFFDF7B1FE412002210225B0
:10272000FDF7D8FFFDF7A2FE611C41200122FDF755
:102730005DFF40F2E400C2F200006570FFF746FB67
:10274000FEE700000000000030B540F2FF742DED00
:10275000048BF0EE608A18EE901A85B0B0EE408AD5
:102760009FED2B9B05468DED008B34EA115147D030
:1027700053EC192B51EC180B00F0B4F840D02A465A
:1027800051EC180B00F044FA41EC180B18EE900ACB
:102790008DED008B34EA10501CD053EC192B51EC0A
:1027A000180B00F09FF82BD10220FDF71AFE00F065
:1027B00043F810EE901A18EE900A8DED020B8DED95
:1027C000008B61F31E0003909DED020B05B0BDEC84
:1027D000048B30BD0220FDF704FE00F01DF810EE62
:1027E000901A18EE900A8DED020B8DED008B61F3BF
:1027F0001E0003909DED020B05B0BDEC048B30BDB7
:1028000005B0B0EE480AF0EE680ABDEC048B30BDAE
:1028100000000000000000009FED050B10B553EC18
:10282000102B51EC100B00F0B1F841EC100B10BD67
:1028300000000000000000709FED050B10B553EC88
:10284000102B51EC100B00F0A1F841EC100B10BD57
:10285000000000000000001021F0004201F00043E1
:10286000A2F16052B2F5801F28BFD2F17F6C0BD964
:102870005FEA001C43EAC20242EB507018BF704787
:1028800028BF20F001007047B2F5801FBCBF18467A
:1028900070474FEA410C1CF5001F02D2084600F0B9
:1028A00080B970B500F01CF900000089FFF7F6BF91
:1028B0004FF00040A0F580007047000002494FF043
:1028C000000000F073B900BF0000F87F491058BF46
:1028D000C1F140415B1058BFC3F140438B42EFF35D
:1028E0000080704751EA030C17D41CF5801F58BFB5
:1028F000BCF5801F00F10680994218BF704708BFE1
:102900009042704707D711F5801F58BF13F5801FFD
:1029100019D499427047894270471CF5801F08D529
:10292000BCF5801FF7D58B4218BF704708BF8242A5
:1029300070474FF4001C1CEB410F38BF1CEB430FDA
:1029400001D28B42704770B500F0CAF8922449005A
:102950004FF000514FF08053FFF7B8BF10F0004226
:1029600048BF4042B0FA80F310FA03F10AD0C3F135
:102970001D0303F5806302EB03524FEA415002EB63
:10298000D12170474FF000007047000070B5DFF8AC
:1029900048C11CEA111E1EBF1CEA13159EEA0C0F4B
:1029A00095EA0C0F00F06F8081EA03044EEAD47EB2
:1029B000AE4421EA4C1123EA4C1341F4801143F454
:1029C0008013AEF17F7EA1FB024CA0FB036536199C
:1029D00055EB0C05A1FB034C4CF10003A0FB021CC2
:1029E00016EB0C06654153F10003094218BF46F08F
:1029F000010613F4007F0BD14FEA03314FEA053093
:102A000041EA155140EA165034036FF003020AE020
:102A10004FEAC3214FEAC52041EA555140EA5650DA
:102A2000F4026FF0020202EB2E4201EB025585EA3E
:102A3000CE710AD05FEA440C18BF24F0004450F174
:102A4000000041F1000120EAD47040F2FE7C6245B2
:102A500000D270BDA84214BF4FF080444FF04044F4
:102A6000002E08BF0024BEF1806FA8BFA1F1C041B5
:102A7000BDE8704080F2828001F1C04101F0004168
:102A80004FF0000070470CEA13159EEA0C0F18BFB8
:102A900095EA0C0F06D081EA030E4FF000000EF00D
:102AA000004170BD00F01CF88900013E00F007B83D
:102AB00000F009B84FEA430C5FEA5C5C08D081EA99
:102AC000030100F05BB84FEA410C5FEA5C5CF6D1B1
:102AD00002494FF0000070470000FF070000F87F38
:102AE0000EF1020E2EF0030E5EF8046B364205D492
:102AF000012A43EB030515F5001F12D8012841EB0D
:102B0000010C1CF5001F0CD80ED14FEAD17C0CEB48
:102B10004C0C0CF1020C15F5001F08BF4CEBD37CDC
:102B200004E04FF0080C01E04FEAD37C0CEB4C05BD
:102B300026FA05F606F00706B6F1040C06D20EEBEF
:102B4000860CBDE870404CF0010C6047DFE80CF0EB
:102B5000090B02024FF00041A1F500214FF00000E7
:102B600070BD19461046012851EB010418BFD4F579
:102B7000001484BF002001F0004170BD0808A0F5DA
:102B800000114FEA31017047F1EE100A4FF6FF7164
:102B9000C0F2C03120EA010040F04070E1EE100ABE
:102BA0007047FF2141EAD050C00570470CF00F0379
:102BB000092B08BF082000F059800A2B0BD0082BE6
:102BC00018BF704708BF1CF0400F0AD04FF000003C
:102BD0004FF0000170471CF0400F18BF4FF000404D
:102BE00070471CF0100F08D000F07F4220F07043B7
:102BF00042EAD3014FEA4370704700F0604021F091
:102C00007F4242EA000201F07F4040EA7270704762
:102C10004FF0FF0C4CF4E06C1CEA11531CBF9CEA13
:102C2000030C9445C2BFDA4201EB02517047002BFE
:102C30000DD0BCF1000F0FD001F00041002AA4BF5D
:102C400041F0E04141F07F614FF00000704701F03A
:102C500000414FF00000704750EA01334FF09B0CE9
:102C600018BF4CF0806C7FF429AE70471CF4801FB5
:102C700011D01CF4E02F03D06FEACC31490070472B
:102C80004FF04050EFF3008222F0704242EA00021F
:102C900082F3008870474FF000007047000000008A
:102CA000000000000102030406070809D02C0008F8
:102CB0000000002010000000EC010008E02C0008DB
:102CC00010000020300700000C0200080000000087
:102CD00001000000100000000024F40000000000CB
:040000050800018965
:00000001FF
